{
  "contractName": "Election",
  "abi": [
    {
      "inputs": [],
      "stateMutability": "nonpayable",
      "type": "constructor"
    },
    {
      "inputs": [
        {
          "internalType": "uint256",
          "name": "",
          "type": "uint256"
        }
      ],
      "name": "candidateAddresses",
      "outputs": [
        {
          "internalType": "address",
          "name": "",
          "type": "address"
        }
      ],
      "stateMutability": "view",
      "type": "function",
      "constant": true
    },
    {
      "inputs": [
        {
          "internalType": "address",
          "name": "",
          "type": "address"
        }
      ],
      "name": "candidates",
      "outputs": [
        {
          "internalType": "string",
          "name": "name",
          "type": "string"
        },
        {
          "internalType": "bool",
          "name": "registered",
          "type": "bool"
        },
        {
          "internalType": "uint256",
          "name": "voteCount",
          "type": "uint256"
        },
        {
          "internalType": "bool",
          "name": "votable",
          "type": "bool"
        }
      ],
      "stateMutability": "view",
      "type": "function",
      "constant": true
    },
    {
      "inputs": [],
      "name": "owner",
      "outputs": [
        {
          "internalType": "address",
          "name": "",
          "type": "address"
        }
      ],
      "stateMutability": "view",
      "type": "function",
      "constant": true
    },
    {
      "inputs": [],
      "name": "state",
      "outputs": [
        {
          "internalType": "enum Election.State",
          "name": "",
          "type": "uint8"
        }
      ],
      "stateMutability": "view",
      "type": "function",
      "constant": true
    },
    {
      "inputs": [],
      "name": "totalVotes",
      "outputs": [
        {
          "internalType": "uint256",
          "name": "",
          "type": "uint256"
        }
      ],
      "stateMutability": "view",
      "type": "function",
      "constant": true
    },
    {
      "inputs": [
        {
          "internalType": "address",
          "name": "",
          "type": "address"
        }
      ],
      "name": "voters",
      "outputs": [
        {
          "internalType": "bool",
          "name": "voted",
          "type": "bool"
        },
        {
          "internalType": "bool",
          "name": "registered",
          "type": "bool"
        },
        {
          "internalType": "address",
          "name": "vote",
          "type": "address"
        }
      ],
      "stateMutability": "view",
      "type": "function",
      "constant": true
    },
    {
      "inputs": [],
      "name": "payFee",
      "outputs": [],
      "stateMutability": "payable",
      "type": "function",
      "payable": true
    },
    {
      "inputs": [
        {
          "internalType": "address",
          "name": "_voterAddress",
          "type": "address"
        }
      ],
      "name": "registerVoter",
      "outputs": [],
      "stateMutability": "nonpayable",
      "type": "function"
    },
    {
      "inputs": [
        {
          "internalType": "address",
          "name": "_canAddress",
          "type": "address"
        },
        {
          "internalType": "string",
          "name": "_name",
          "type": "string"
        }
      ],
      "name": "addCandidate",
      "outputs": [],
      "stateMutability": "nonpayable",
      "type": "function"
    },
    {
      "inputs": [],
      "name": "startVote",
      "outputs": [],
      "stateMutability": "nonpayable",
      "type": "function"
    },
    {
      "inputs": [
        {
          "internalType": "address",
          "name": "_canAddress",
          "type": "address"
        }
      ],
      "name": "vote",
      "outputs": [],
      "stateMutability": "nonpayable",
      "type": "function"
    },
    {
      "inputs": [],
      "name": "endVote",
      "outputs": [],
      "stateMutability": "nonpayable",
      "type": "function"
    },
    {
      "inputs": [],
      "name": "announceWinner",
      "outputs": [
        {
          "internalType": "address",
          "name": "",
          "type": "address"
        }
      ],
      "stateMutability": "view",
      "type": "function",
      "constant": true
    },
    {
      "inputs": [],
      "name": "getTotalCandidates",
      "outputs": [
        {
          "internalType": "uint256",
          "name": "",
          "type": "uint256"
        }
      ],
      "stateMutability": "view",
      "type": "function",
      "constant": true
    },
    {
      "inputs": [],
      "name": "balanceOf",
      "outputs": [
        {
          "internalType": "uint256",
          "name": "",
          "type": "uint256"
        }
      ],
      "stateMutability": "view",
      "type": "function",
      "constant": true
    },
    {
      "inputs": [],
      "name": "withdrawRegistrationFunds",
      "outputs": [],
      "stateMutability": "payable",
      "type": "function",
      "payable": true
    },
    {
      "inputs": [],
      "name": "getOwnerBalance",
      "outputs": [
        {
          "internalType": "uint256",
          "name": "",
          "type": "uint256"
        }
      ],
      "stateMutability": "view",
      "type": "function",
      "constant": true
    }
  ],
  "bytecode": "0x608060405234801561001057600080fd5b5033600160006101000a81548173ffffffffffffffffffffffffffffffffffffffff021916908373ffffffffffffffffffffffffffffffffffffffff1602179055506000600560006101000a81548160ff0219169083600281111561007857610077610082565b5b02179055506100b1565b7f4e487b7100000000000000000000000000000000000000000000000000000000600052602160045260246000fd5b6122d1806100c06000396000f3fe6080604052600436106100fe5760003560e01c8063722713f7116100955780639e83a2e0116100645780639e83a2e0146102e1578063a3ec138d146102eb578063b92239461461032a578063c19d93fb14610341578063d55d73c51461036c576100fe565b8063722713f7146102225780638ab66a901461024d5780638da5cb5b1461028d5780639a594f06146102b8576100fe565b806338db6dd3116100d157806338db6dd31461018e5780634c0a6af0146101b7578063590791f2146101ce5780636dd7d8ea146101f9576100fe565b80630d15fd77146101035780630deb56ab1461012e57806329610252146101595780632d8cd09614610163575b600080fd5b34801561010f57600080fd5b506101186103a9565b60405161012591906117c8565b60405180910390f35b34801561013a57600080fd5b506101436103af565b60405161015091906117c8565b60405180910390f35b6101616103bb565b005b34801561016f57600080fd5b506101786104eb565b6040516101859190611824565b60405180910390f35b34801561019a57600080fd5b506101b560048036038101906101b0919061187f565b6106e2565b005b3480156101c357600080fd5b506101cc610968565b005b3480156101da57600080fd5b506101e3610a9d565b6040516101f091906117c8565b60405180910390f35b34801561020557600080fd5b50610220600480360381019061021b919061187f565b610ade565b005b34801561022e57600080fd5b50610237610ee3565b60405161024491906117c8565b60405180910390f35b34801561025957600080fd5b50610274600480360381019061026f919061187f565b610eeb565b6040516102849493929190611960565b60405180910390f35b34801561029957600080fd5b506102a2610fbd565b6040516102af9190611824565b60405180910390f35b3480156102c457600080fd5b506102df60048036038101906102da9190611ae1565b610fe3565b005b6102e961136b565b005b3480156102f757600080fd5b50610312600480360381019061030d919061187f565b611521565b60405161032193929190611b3d565b60405180910390f35b34801561033657600080fd5b5061033f611585565b005b34801561034d57600080fd5b506103566116ba565b6040516103639190611beb565b60405180910390f35b34801561037857600080fd5b50610393600480360381019061038e9190611c32565b6116cd565b6040516103a09190611824565b60405180910390f35b60045481565b60008080549050905090565b606434146103fe576040517f08c379a00000000000000000000000000000000000000000000000000000000081526004016103f590611cab565b60405180910390fd5b600360003373ffffffffffffffffffffffffffffffffffffffff1673ffffffffffffffffffffffffffffffffffffffff16815260200190815260200160002060030160009054906101000a900460ff161561048e576040517f08c379a000000000000000000000000000000000000000000000000000000000815260040161048590611d3d565b60405180910390fd5b6001600360003373ffffffffffffffffffffffffffffffffffffffff1673ffffffffffffffffffffffffffffffffffffffff16815260200190815260200160002060010160006101000a81548160ff021916908315150217905550565b6000600280600281111561050257610501611b74565b5b600560009054906101000a900460ff16600281111561052457610523611b74565b5b14610564576040517f08c379a000000000000000000000000000000000000000000000000000000000815260040161055b90611da9565b60405180910390fd5b60008080600091505b6000805490508210156106d857826003600080858154811061059257610591611dc9565b5b9060005260206000200160009054906101000a900473ffffffffffffffffffffffffffffffffffffffff1673ffffffffffffffffffffffffffffffffffffffff1673ffffffffffffffffffffffffffffffffffffffff1681526020019081526020016000206002015411156106c5576003600080848154811061061857610617611dc9565b5b9060005260206000200160009054906101000a900473ffffffffffffffffffffffffffffffffffffffff1673ffffffffffffffffffffffffffffffffffffffff1673ffffffffffffffffffffffffffffffffffffffff1681526020019081526020016000206002015492506000828154811061069757610696611dc9565b5b9060005260206000200160009054906101000a900473ffffffffffffffffffffffffffffffffffffffff1690505b81806106d090611e27565b92505061056d565b8094505050505090565b600160009054906101000a900473ffffffffffffffffffffffffffffffffffffffff1673ffffffffffffffffffffffffffffffffffffffff163373ffffffffffffffffffffffffffffffffffffffff1614610772576040517f08c379a000000000000000000000000000000000000000000000000000000000815260040161076990611ebb565b60405180910390fd5b600080600281111561078757610786611b74565b5b600560009054906101000a900460ff1660028111156107a9576107a8611b74565b5b146107e9576040517f08c379a00000000000000000000000000000000000000000000000000000000081526004016107e090611da9565b60405180910390fd5b600260008373ffffffffffffffffffffffffffffffffffffffff1673ffffffffffffffffffffffffffffffffffffffff16815260200190815260200160002060000160019054906101000a900460ff1615610879576040517f08c379a000000000000000000000000000000000000000000000000000000000815260040161087090611f27565b60405180910390fd5b600160009054906101000a900473ffffffffffffffffffffffffffffffffffffffff1673ffffffffffffffffffffffffffffffffffffffff168273ffffffffffffffffffffffffffffffffffffffff1603610909576040517f08c379a000000000000000000000000000000000000000000000000000000000815260040161090090611f93565b60405180910390fd5b6001600260008473ffffffffffffffffffffffffffffffffffffffff1673ffffffffffffffffffffffffffffffffffffffff16815260200190815260200160002060000160016101000a81548160ff0219169083151502179055505050565b600080600281111561097d5761097c611b74565b5b600560009054906101000a900460ff16600281111561099f5761099e611b74565b5b146109df576040517f08c379a00000000000000000000000000000000000000000000000000000000081526004016109d690611da9565b60405180910390fd5b600160009054906101000a900473ffffffffffffffffffffffffffffffffffffffff1673ffffffffffffffffffffffffffffffffffffffff163373ffffffffffffffffffffffffffffffffffffffff1614610a6f576040517f08c379a0000000000000000000000000000000000000000000000000000000008152600401610a6690611ebb565b60405180910390fd5b6001600560006101000a81548160ff02191690836002811115610a9557610a94611b74565b5b021790555050565b6000600160009054906101000a900473ffffffffffffffffffffffffffffffffffffffff1673ffffffffffffffffffffffffffffffffffffffff1631905090565b6001806002811115610af357610af2611b74565b5b600560009054906101000a900460ff166002811115610b1557610b14611b74565b5b14610b55576040517f08c379a0000000000000000000000000000000000000000000000000000000008152600401610b4c90611da9565b60405180910390fd5b600260003373ffffffffffffffffffffffffffffffffffffffff1673ffffffffffffffffffffffffffffffffffffffff16815260200190815260200160002060000160019054906101000a900460ff16610be4576040517f08c379a0000000000000000000000000000000000000000000000000000000008152600401610bdb90611fff565b60405180910390fd5b600260003373ffffffffffffffffffffffffffffffffffffffff1673ffffffffffffffffffffffffffffffffffffffff16815260200190815260200160002060000160009054906101000a900460ff1615610c74576040517f08c379a0000000000000000000000000000000000000000000000000000000008152600401610c6b9061206b565b60405180910390fd5b600360008373ffffffffffffffffffffffffffffffffffffffff1673ffffffffffffffffffffffffffffffffffffffff16815260200190815260200160002060010160009054906101000a900460ff16610d03576040517f08c379a0000000000000000000000000000000000000000000000000000000008152600401610cfa906120d7565b60405180910390fd5b600160009054906101000a900473ffffffffffffffffffffffffffffffffffffffff1673ffffffffffffffffffffffffffffffffffffffff163373ffffffffffffffffffffffffffffffffffffffff1603610d93576040517f08c379a0000000000000000000000000000000000000000000000000000000008152600401610d8a90612143565b60405180910390fd5b81600260003373ffffffffffffffffffffffffffffffffffffffff1673ffffffffffffffffffffffffffffffffffffffff16815260200190815260200160002060000160026101000a81548173ffffffffffffffffffffffffffffffffffffffff021916908373ffffffffffffffffffffffffffffffffffffffff1602179055506001600260003373ffffffffffffffffffffffffffffffffffffffff1673ffffffffffffffffffffffffffffffffffffffff16815260200190815260200160002060000160006101000a81548160ff021916908315150217905550600360008373ffffffffffffffffffffffffffffffffffffffff1673ffffffffffffffffffffffffffffffffffffffff1681526020019081526020016000206002016000815480929190610ec290611e27565b919050555060046000815480929190610eda90611e27565b91905055505050565b600047905090565b6003602052806000526040600020600091509050806000018054610f0e90612192565b80601f0160208091040260200160405190810160405280929190818152602001828054610f3a90612192565b8015610f875780601f10610f5c57610100808354040283529160200191610f87565b820191906000526020600020905b815481529060010190602001808311610f6a57829003601f168201915b5050505050908060010160009054906101000a900460ff16908060020154908060030160009054906101000a900460ff16905084565b600160009054906101000a900473ffffffffffffffffffffffffffffffffffffffff1681565b6000806002811115610ff857610ff7611b74565b5b600560009054906101000a900460ff16600281111561101a57611019611b74565b5b1461105a576040517f08c379a000000000000000000000000000000000000000000000000000000000815260040161105190611da9565b60405180910390fd5b600160009054906101000a900473ffffffffffffffffffffffffffffffffffffffff1673ffffffffffffffffffffffffffffffffffffffff163373ffffffffffffffffffffffffffffffffffffffff16146110ea576040517f08c379a00000000000000000000000000000000000000000000000000000000081526004016110e190611ebb565b60405180910390fd5b600360008473ffffffffffffffffffffffffffffffffffffffff1673ffffffffffffffffffffffffffffffffffffffff16815260200190815260200160002060030160009054906101000a900460ff161561117a576040517f08c379a000000000000000000000000000000000000000000000000000000000815260040161117190611d3d565b60405180910390fd5b600360008473ffffffffffffffffffffffffffffffffffffffff1673ffffffffffffffffffffffffffffffffffffffff16815260200190815260200160002060010160009054906101000a900460ff16611209576040517f08c379a00000000000000000000000000000000000000000000000000000000081526004016112009061220f565b60405180910390fd5b81600360008573ffffffffffffffffffffffffffffffffffffffff1673ffffffffffffffffffffffffffffffffffffffff168152602001908152602001600020600001908051906020019061125f92919061170c565b506001600360008573ffffffffffffffffffffffffffffffffffffffff1673ffffffffffffffffffffffffffffffffffffffff16815260200190815260200160002060030160006101000a81548160ff0219169083151502179055506000600360008573ffffffffffffffffffffffffffffffffffffffff1673ffffffffffffffffffffffffffffffffffffffff168152602001908152602001600020600201819055506000839080600181540180825580915050600190039060005260206000200160009091909190916101000a81548173ffffffffffffffffffffffffffffffffffffffff021916908373ffffffffffffffffffffffffffffffffffffffff160217905550505050565b600160009054906101000a900473ffffffffffffffffffffffffffffffffffffffff1673ffffffffffffffffffffffffffffffffffffffff163373ffffffffffffffffffffffffffffffffffffffff16146113fb576040517f08c379a00000000000000000000000000000000000000000000000000000000081526004016113f290611ebb565b60405180910390fd5b60028060028111156114105761140f611b74565b5b600560009054906101000a900460ff16600281111561143257611431611b74565b5b14611472576040517f08c379a000000000000000000000000000000000000000000000000000000000815260040161146990611da9565b60405180910390fd5b600047116114b5576040517f08c379a00000000000000000000000000000000000000000000000000000000081526004016114ac9061227b565b60405180910390fd5b600160009054906101000a900473ffffffffffffffffffffffffffffffffffffffff1673ffffffffffffffffffffffffffffffffffffffff166108fc479081150290604051600060405180830381858888f1935050505015801561151d573d6000803e3d6000fd5b5050565b60026020528060005260406000206000915090508060000160009054906101000a900460ff16908060000160019054906101000a900460ff16908060000160029054906101000a900473ffffffffffffffffffffffffffffffffffffffff16905083565b600180600281111561159a57611599611b74565b5b600560009054906101000a900460ff1660028111156115bc576115bb611b74565b5b146115fc576040517f08c379a00000000000000000000000000000000000000000000000000000000081526004016115f390611da9565b60405180910390fd5b600160009054906101000a900473ffffffffffffffffffffffffffffffffffffffff1673ffffffffffffffffffffffffffffffffffffffff163373ffffffffffffffffffffffffffffffffffffffff161461168c576040517f08c379a000000000000000000000000000000000000000000000000000000000815260040161168390611ebb565b60405180910390fd5b6002600560006101000a81548160ff021916908360028111156116b2576116b1611b74565b5b021790555050565b600560009054906101000a900460ff1681565b600081815481106116dd57600080fd5b906000526020600020016000915054906101000a900473ffffffffffffffffffffffffffffffffffffffff1681565b82805461171890612192565b90600052602060002090601f01602090048101928261173a5760008555611781565b82601f1061175357805160ff1916838001178555611781565b82800160010185558215611781579182015b82811115611780578251825591602001919060010190611765565b5b50905061178e9190611792565b5090565b5b808211156117ab576000816000905550600101611793565b5090565b6000819050919050565b6117c2816117af565b82525050565b60006020820190506117dd60008301846117b9565b92915050565b600073ffffffffffffffffffffffffffffffffffffffff82169050919050565b600061180e826117e3565b9050919050565b61181e81611803565b82525050565b60006020820190506118396000830184611815565b92915050565b6000604051905090565b600080fd5b600080fd5b61185c81611803565b811461186757600080fd5b50565b60008135905061187981611853565b92915050565b60006020828403121561189557611894611849565b5b60006118a38482850161186a565b91505092915050565b600081519050919050565b600082825260208201905092915050565b60005b838110156118e65780820151818401526020810190506118cb565b838111156118f5576000848401525b50505050565b6000601f19601f8301169050919050565b6000611917826118ac565b61192181856118b7565b93506119318185602086016118c8565b61193a816118fb565b840191505092915050565b60008115159050919050565b61195a81611945565b82525050565b6000608082019050818103600083015261197a818761190c565b90506119896020830186611951565b61199660408301856117b9565b6119a36060830184611951565b95945050505050565b600080fd5b600080fd5b7f4e487b7100000000000000000000000000000000000000000000000000000000600052604160045260246000fd5b6119ee826118fb565b810181811067ffffffffffffffff82111715611a0d57611a0c6119b6565b5b80604052505050565b6000611a2061183f565b9050611a2c82826119e5565b919050565b600067ffffffffffffffff821115611a4c57611a4b6119b6565b5b611a55826118fb565b9050602081019050919050565b82818337600083830152505050565b6000611a84611a7f84611a31565b611a16565b905082815260208101848484011115611aa057611a9f6119b1565b5b611aab848285611a62565b509392505050565b600082601f830112611ac857611ac76119ac565b5b8135611ad8848260208601611a71565b91505092915050565b60008060408385031215611af857611af7611849565b5b6000611b068582860161186a565b925050602083013567ffffffffffffffff811115611b2757611b2661184e565b5b611b3385828601611ab3565b9150509250929050565b6000606082019050611b526000830186611951565b611b5f6020830185611951565b611b6c6040830184611815565b949350505050565b7f4e487b7100000000000000000000000000000000000000000000000000000000600052602160045260246000fd5b60038110611bb457611bb3611b74565b5b50565b6000819050611bc582611ba3565b919050565b6000611bd582611bb7565b9050919050565b611be581611bca565b82525050565b6000602082019050611c006000830184611bdc565b92915050565b611c0f816117af565b8114611c1a57600080fd5b50565b600081359050611c2c81611c06565b92915050565b600060208284031215611c4857611c47611849565b5b6000611c5684828501611c1d565b91505092915050565b7f506179203130302077656920746f207265676973746572000000000000000000600082015250565b6000611c956017836118b7565b9150611ca082611c5f565b602082019050919050565b60006020820190508181036000830152611cc481611c88565b9050919050565b7f43616e6469646174652063616e20616c726561647920626520766f746564206660008201527f6f72000000000000000000000000000000000000000000000000000000000000602082015250565b6000611d276022836118b7565b9150611d3282611ccb565b604082019050919050565b60006020820190508181036000830152611d5681611d1a565b9050919050565b7f57726f6e67207374617465000000000000000000000000000000000000000000600082015250565b6000611d93600b836118b7565b9150611d9e82611d5d565b602082019050919050565b60006020820190508181036000830152611dc281611d86565b9050919050565b7f4e487b7100000000000000000000000000000000000000000000000000000000600052603260045260246000fd5b7f4e487b7100000000000000000000000000000000000000000000000000000000600052601160045260246000fd5b6000611e32826117af565b91507fffffffffffffffffffffffffffffffffffffffffffffffffffffffffffffffff8203611e6457611e63611df8565b5b600182019050919050565b7f596f7520617265206e6f7420746865206f776e65720000000000000000000000600082015250565b6000611ea56015836118b7565b9150611eb082611e6f565b602082019050919050565b60006020820190508181036000830152611ed481611e98565b9050919050565b7f566f74657220697320616c726561647920726567697374657265640000000000600082015250565b6000611f11601b836118b7565b9150611f1c82611edb565b602082019050919050565b60006020820190508181036000830152611f4081611f04565b9050919050565b7f4f776e65722063616e6e6f742062652072656769737465726564000000000000600082015250565b6000611f7d601a836118b7565b9150611f8882611f47565b602082019050919050565b60006020820190508181036000830152611fac81611f70565b9050919050565b7f566f746572206973206e6f742072656769737465726564000000000000000000600082015250565b6000611fe96017836118b7565b9150611ff482611fb3565b602082019050919050565b6000602082019050818103600083015261201881611fdc565b9050919050565b7f566f7465722068617320616c726561647920766f746564000000000000000000600082015250565b60006120556017836118b7565b91506120608261201f565b602082019050919050565b6000602082019050818103600083015261208481612048565b9050919050565b7f4e6f74206120726567697374657265642063616e646964617465000000000000600082015250565b60006120c1601a836118b7565b91506120cc8261208b565b602082019050919050565b600060208201905081810360008301526120f0816120b4565b9050919050565b7f4f776e65722063616e6e6f7420766f7465000000000000000000000000000000600082015250565b600061212d6011836118b7565b9150612138826120f7565b602082019050919050565b6000602082019050818103600083015261215c81612120565b9050919050565b7f4e487b7100000000000000000000000000000000000000000000000000000000600052602260045260246000fd5b600060028204905060018216806121aa57607f821691505b6020821081036121bd576121bc612163565b5b50919050565b7f43616e646964617465206973206e6f7420726567697374657265640000000000600082015250565b60006121f9601b836118b7565b9150612204826121c3565b602082019050919050565b60006020820190508181036000830152612228816121ec565b9050919050565b7f4e6f2066756e647320746f207472616e73666572000000000000000000000000600082015250565b60006122656014836118b7565b91506122708261222f565b602082019050919050565b6000602082019050818103600083015261229481612258565b905091905056fea26469706673582212205850683eeb70c113a7e16c100f978b44956105ce0220ef1f1427b8260671939a64736f6c634300080d0033",
  "immutableReferences": {},
  "source": "// SPDX-License-Identifier: MIT\n//v2: candidates can no longer register twice\npragma solidity >=0.5.0 <0.9.0;\n\n\ncontract Election {\n\n    struct Candidate {\n        string name;\n        bool registered;\n        uint voteCount;\n        bool votable; //added in v2\n    }\n\n    struct Voter {\n        bool voted;\n        bool registered;\n        address vote;\n    }\n\n    address[] public candidateAddresses;\n    address public owner;\n    //string public electionName;\n\n    mapping(address => Voter) public voters;\n    mapping(address => Candidate) public candidates;\n    uint public totalVotes;\n\n    enum State { Created, Voting, Ended }\n    State public state;\n\n    modifier onlyOwner() {\n        require(msg.sender == owner, \"You are not the owner\");\n        _;\n    }\n\n    modifier inState(State _state) {\n        require(state == _state, \"Wrong state\");\n        _;\n    }\n\n    //constructor(string memory _name) public {\n    constructor() {\n        owner = msg.sender;\n        //electionName = _name; \n        state = State.Created;\n    }\n\n    //this function is called by a new candidate in which they pay 100 to register as a candidate\n    function payFee() public payable {\n        require(msg.value == 100 wei, \"Pay 100 wei to register\");\n        require(!candidates[msg.sender].votable, \"Candidate can already be voted for\"); //added in v2\n        candidates[msg.sender].registered = true;        \n    }\n\n    //this function is called by owner to manually register a new voter\n    function registerVoter(address _voterAddress) onlyOwner inState(State.Created) public {\n        require(!voters[_voterAddress].registered, \"Voter is already registered\");\n        require(_voterAddress != owner, \"Owner cannot be registered\");\n        voters[_voterAddress].registered = true;\n    }\n\n  //this function is called by owner to manually register a new candidate after they pay 100 wei\n    function addCandidate(address _canAddress, string memory _name) inState(State.Created) onlyOwner public {\n        require(!candidates[_canAddress].votable, \"Candidate can already be voted for\");    //added in v2\n        require(candidates[_canAddress].registered, \"Candidate is not registered\");\n        candidates[_canAddress].name = _name;\n        candidates[_canAddress].votable = true; //added in v2\n        candidates[_canAddress].voteCount = 0;\n        candidateAddresses.push(_canAddress);\n    }\n\n    //this function indicates the start of the election.\n    function startVote() public inState(State.Created) onlyOwner {\n        state = State.Voting;\n    }\n\n    // this funciton is called by a voter to vote for a candidate\n    function vote(address _canAddress) inState(State.Voting) public {\n        require(voters[msg.sender].registered, \"Voter is not registered\");\n        require(!voters[msg.sender].voted, \"Voter has already voted\");\n        require(candidates[_canAddress].registered, \"Not a registered candidate\");\n        require(msg.sender!=owner, \"Owner cannot vote\"); \n\n        voters[msg.sender].vote = _canAddress;\n        voters[msg.sender].voted = true;\n        candidates[_canAddress].voteCount++;\n        totalVotes++;\n    }\n\n    //this function ends the vote state\n    function endVote() public inState(State.Voting) onlyOwner {\n        state = State.Ended;\n    }\n\n    //this function announces the winner's address, compares the vote count for all the candidates.\n    function announceWinner() inState(State.Ended) public view returns (address) {\n        uint max = 0;\n        uint i;\n        address winnerAddress;\n        for(i=0; i<candidateAddresses.length; i++) {\n            if(candidates[candidateAddresses[i]].voteCount > max) {\n                max = candidates[candidateAddresses[i]].voteCount;\n                winnerAddress = candidateAddresses[i];\n            }\n        }\n        return winnerAddress;\n    }\n\n    //this function returns the length of the candidateAddress array.\n\n    function getTotalCandidates() public view returns(uint) {\n        return candidateAddresses.length;\n    }\n\n    //this function returns the balance of the contract.\n\n    function balanceOf() public view returns(uint) {\n        return address(this).balance;\n    }\n\n    //this function transfers the funds from the contract to the owner.\n\n    function withdrawRegistrationFunds() onlyOwner inState(State.Ended) payable public {\n        require(address(this).balance > 0, \"No funds to transfer\");\n        payable(owner).transfer(address(this).balance);\n    }\n\n    //this function returns the balance of the owner\n\n    function getOwnerBalance() public view returns(uint) {\n        return owner.balance;\n    }\n\n}",
  "sourcePath": "/home/user1/Documents/Y4S1/blockchain/truffleworking/contracts/KhaiBrowniev2.sol",
  "compiler": {
    "name": "solc",
    "version": "0.8.13+commit.abaa5c0e.Emscripten.clang"
  },
  "schemaVersion": "3.4.16",
  "updatedAt": "2024-01-17T02:30:40.881Z",
  "networkType": "ethereum",
  "devdoc": {
    "kind": "dev",
    "methods": {},
    "version": 1
  },
  "userdoc": {
    "kind": "user",
    "methods": {},
    "version": 1
  }
}